{
  "_format": "hh-sol-artifact-1",
  "contractName": "Account",
  "sourceName": "contracts/Account.sol",
  "abi": [
    {
      "inputs": [
        {
          "internalType": "address",
          "name": "_crossChainExecutorList",
          "type": "address"
        }
      ],
      "stateMutability": "nonpayable",
      "type": "constructor"
    },
    {
      "inputs": [],
      "name": "AccountLocked",
      "type": "error"
    },
    {
      "inputs": [],
      "name": "ExceedsMaxLockTime",
      "type": "error"
    },
    {
      "inputs": [
        {
          "internalType": "uint256",
          "name": "_size",
          "type": "uint256"
        },
        {
          "internalType": "uint256",
          "name": "_start",
          "type": "uint256"
        },
        {
          "internalType": "uint256",
          "name": "_end",
          "type": "uint256"
        }
      ],
      "name": "InvalidCodeAtRange",
      "type": "error"
    },
    {
      "inputs": [],
      "name": "NotAuthorized",
      "type": "error"
    },
    {
      "anonymous": false,
      "inputs": [
        {
          "indexed": false,
          "internalType": "address",
          "name": "owner",
          "type": "address"
        },
        {
          "indexed": false,
          "internalType": "address",
          "name": "executor",
          "type": "address"
        }
      ],
      "name": "ExecutorUpdated",
      "type": "event"
    },
    {
      "anonymous": false,
      "inputs": [
        {
          "indexed": false,
          "internalType": "uint256",
          "name": "timestamp",
          "type": "uint256"
        }
      ],
      "name": "LockUpdated",
      "type": "event"
    },
    {
      "stateMutability": "payable",
      "type": "fallback"
    },
    {
      "inputs": [],
      "name": "crossChainExecutorList",
      "outputs": [
        {
          "internalType": "contract CrossChainExecutorList",
          "name": "",
          "type": "address"
        }
      ],
      "stateMutability": "view",
      "type": "function"
    },
    {
      "inputs": [
        {
          "internalType": "address",
          "name": "to",
          "type": "address"
        },
        {
          "internalType": "uint256",
          "name": "value",
          "type": "uint256"
        },
        {
          "internalType": "bytes",
          "name": "data",
          "type": "bytes"
        }
      ],
      "name": "executeCall",
      "outputs": [
        {
          "internalType": "bytes",
          "name": "result",
          "type": "bytes"
        }
      ],
      "stateMutability": "payable",
      "type": "function"
    },
    {
      "inputs": [
        {
          "internalType": "address",
          "name": "to",
          "type": "address"
        },
        {
          "internalType": "uint256",
          "name": "value",
          "type": "uint256"
        },
        {
          "internalType": "bytes",
          "name": "data",
          "type": "bytes"
        }
      ],
      "name": "executeCrossChainCall",
      "outputs": [
        {
          "internalType": "bytes",
          "name": "result",
          "type": "bytes"
        }
      ],
      "stateMutability": "payable",
      "type": "function"
    },
    {
      "inputs": [
        {
          "internalType": "address",
          "name": "to",
          "type": "address"
        },
        {
          "internalType": "uint256",
          "name": "value",
          "type": "uint256"
        },
        {
          "internalType": "bytes",
          "name": "data",
          "type": "bytes"
        }
      ],
      "name": "executeTrustedCall",
      "outputs": [
        {
          "internalType": "bytes",
          "name": "result",
          "type": "bytes"
        }
      ],
      "stateMutability": "payable",
      "type": "function"
    },
    {
      "inputs": [
        {
          "internalType": "address",
          "name": "",
          "type": "address"
        }
      ],
      "name": "executor",
      "outputs": [
        {
          "internalType": "address",
          "name": "",
          "type": "address"
        }
      ],
      "stateMutability": "view",
      "type": "function"
    },
    {
      "inputs": [
        {
          "internalType": "address",
          "name": "caller",
          "type": "address"
        }
      ],
      "name": "isAuthorized",
      "outputs": [
        {
          "internalType": "bool",
          "name": "",
          "type": "bool"
        }
      ],
      "stateMutability": "view",
      "type": "function"
    },
    {
      "inputs": [],
      "name": "isLocked",
      "outputs": [
        {
          "internalType": "bool",
          "name": "",
          "type": "bool"
        }
      ],
      "stateMutability": "view",
      "type": "function"
    },
    {
      "inputs": [
        {
          "internalType": "bytes32",
          "name": "hash",
          "type": "bytes32"
        },
        {
          "internalType": "bytes",
          "name": "signature",
          "type": "bytes"
        }
      ],
      "name": "isValidSignature",
      "outputs": [
        {
          "internalType": "bytes4",
          "name": "magicValue",
          "type": "bytes4"
        }
      ],
      "stateMutability": "view",
      "type": "function"
    },
    {
      "inputs": [
        {
          "internalType": "uint256",
          "name": "_unlockTimestamp",
          "type": "uint256"
        }
      ],
      "name": "lock",
      "outputs": [],
      "stateMutability": "nonpayable",
      "type": "function"
    },
    {
      "inputs": [
        {
          "internalType": "address",
          "name": "",
          "type": "address"
        },
        {
          "internalType": "address",
          "name": "",
          "type": "address"
        },
        {
          "internalType": "uint256[]",
          "name": "",
          "type": "uint256[]"
        },
        {
          "internalType": "uint256[]",
          "name": "",
          "type": "uint256[]"
        },
        {
          "internalType": "bytes",
          "name": "",
          "type": "bytes"
        }
      ],
      "name": "onERC1155BatchReceived",
      "outputs": [
        {
          "internalType": "bytes4",
          "name": "",
          "type": "bytes4"
        }
      ],
      "stateMutability": "nonpayable",
      "type": "function"
    },
    {
      "inputs": [
        {
          "internalType": "address",
          "name": "",
          "type": "address"
        },
        {
          "internalType": "address",
          "name": "",
          "type": "address"
        },
        {
          "internalType": "uint256",
          "name": "",
          "type": "uint256"
        },
        {
          "internalType": "uint256",
          "name": "",
          "type": "uint256"
        },
        {
          "internalType": "bytes",
          "name": "",
          "type": "bytes"
        }
      ],
      "name": "onERC1155Received",
      "outputs": [
        {
          "internalType": "bytes4",
          "name": "",
          "type": "bytes4"
        }
      ],
      "stateMutability": "nonpayable",
      "type": "function"
    },
    {
      "inputs": [
        {
          "internalType": "address",
          "name": "",
          "type": "address"
        },
        {
          "internalType": "address",
          "name": "",
          "type": "address"
        },
        {
          "internalType": "uint256",
          "name": "",
          "type": "uint256"
        },
        {
          "internalType": "bytes",
          "name": "",
          "type": "bytes"
        }
      ],
      "name": "onERC721Received",
      "outputs": [
        {
          "internalType": "bytes4",
          "name": "",
          "type": "bytes4"
        }
      ],
      "stateMutability": "nonpayable",
      "type": "function"
    },
    {
      "inputs": [],
      "name": "owner",
      "outputs": [
        {
          "internalType": "address",
          "name": "",
          "type": "address"
        }
      ],
      "stateMutability": "view",
      "type": "function"
    },
    {
      "inputs": [
        {
          "internalType": "address",
          "name": "_executionModule",
          "type": "address"
        }
      ],
      "name": "setExecutor",
      "outputs": [],
      "stateMutability": "nonpayable",
      "type": "function"
    },
    {
      "inputs": [
        {
          "internalType": "bytes4",
          "name": "interfaceId",
          "type": "bytes4"
        }
      ],
      "name": "supportsInterface",
      "outputs": [
        {
          "internalType": "bool",
          "name": "",
          "type": "bool"
        }
      ],
      "stateMutability": "view",
      "type": "function"
    },
    {
      "inputs": [],
      "name": "token",
      "outputs": [
        {
          "internalType": "address",
          "name": "tokenCollection",
          "type": "address"
        },
        {
          "internalType": "uint256",
          "name": "tokenId",
          "type": "uint256"
        }
      ],
      "stateMutability": "view",
      "type": "function"
    },
    {
      "inputs": [],
      "name": "unlockTimestamp",
      "outputs": [
        {
          "internalType": "uint256",
          "name": "",
          "type": "uint256"
        }
      ],
      "stateMutability": "view",
      "type": "function"
    },
    {
      "stateMutability": "payable",
      "type": "receive"
    }
  ],
  "bytecode": "0x60a060405234801561001057600080fd5b506040516115b43803806115b483398101604081905261002f91610040565b6001600160a01b0316608052610070565b60006020828403121561005257600080fd5b81516001600160a01b038116811461006957600080fd5b9392505050565b60805161151b610099600039600081816102d40152818161091d0152610abe015261151b6000f3fe6080604052600436106101025760003560e01c80639e5d4c4911610095578063bc197c8111610064578063bc197c811461036c578063dd46706414610398578063f23a6e61146103b8578063fc0c546a146103e4578063fe9fbb801461041857610109565b80639e5d4c491461030b578063a4e2d6341461031e578063aa082a9d14610335578063ab2481b71461035957610109565b806348c7e528116100d157806348c7e528146102545780637cdc0252146102a257806387002135146102c25780638da5cb5b146102f657610109565b806301ffc9a714610199578063150b7a02146101ce5780631626ba7e146102125780631c3c0ea81461023257610109565b3661010957005b600036606042600054111561013157604051636315bfbb60e01b815260040160405180910390fd5b600061013b610438565b6001600160a01b03808216600090815260016020526040812054929350911690813b900361017c57604051806020016040528060008152509250505061018e565b61018981600087876104ce565b925050505b915050805190602001f35b3480156101a557600080fd5b506101b96101b4366004610f6b565b61054a565b60405190151581526020015b60405180910390f35b3480156101da57600080fd5b506101f96101e9366004611064565b630a85bd0160e11b949350505050565b6040516001600160e01b031990911681526020016101c5565b34801561021e57600080fd5b506101f961022d3660046110d0565b610671565b34801561023e57600080fd5b5061025261024d366004611117565b610708565b005b34801561026057600080fd5b5061028a61026f366004611117565b6001602052600090815260409020546001600160a01b031681565b6040516001600160a01b0390911681526020016101c5565b6102b56102b0366004611134565b6107cc565b6040516101c5919061120d565b3480156102ce57600080fd5b5061028a7f000000000000000000000000000000000000000000000000000000000000000081565b34801561030257600080fd5b5061028a610438565b6102b5610319366004611134565b610854565b34801561032a57600080fd5b5060005442106101b9565b34801561034157600080fd5b5061034b60005481565b6040519081526020016101c5565b6102b5610367366004611134565b6108ae565b34801561037857600080fd5b506101f96103873660046112a0565b63bc197c8160e01b95945050505050565b3480156103a457600080fd5b506102526103b336600461134e565b6109ad565b3480156103c457600080fd5b506101f96103d3366004611367565b63f23a6e6160e01b95945050505050565b3480156103f057600080fd5b506103f9610a68565b604080516001600160a01b0390931683526020830191909152016101c5565b34801561042457600080fd5b506101b9610433366004611117565b610a7d565b600080600080610446610c05565b92509250925046831461045d576000935050505090565b6040516331a9108f60e11b8152600481018290526001600160a01b03831690636352211e90602401602060405180830381865afa1580156104a2573d6000803e3d6000fd5b505050506040513d601f19601f820116820180604052508101906104c691906113d0565b935050505090565b60606000856001600160a01b03168585856040516104ed9291906113ed565b60006040518083038185875af1925050503d806000811461052a576040519150601f19603f3d011682016040523d82523d6000602084013e61052f565b606091505b50925090508061054157815160208301fd5b50949350505050565b60006001600160e01b03198216631dfe9a6f60e31b148061057b57506001600160e01b03198216630271189760e51b145b8061059657506001600160e01b031982166301ffc9a760e01b145b156105a357506001919050565b6000600160006105b1610438565b6001600160a01b0390811682526020820192909252604001600020541690508015806105e557506001600160a01b0381163b155b156105f35750600092915050565b6040516301ffc9a760e01b81526001600160e01b0319841660048201526001600160a01b038216906301ffc9a790602401602060405180830381865afa92505050801561065d575060408051601f3d908101601f1916820190925261065a918101906113fd565b60015b61066a5750600092915050565b9392505050565b600042600054111561068557506000610702565b600061068f610438565b6001600160a01b038082166000908152600160205260409020549192501680158015906106c257506106c2818686610c4d565b156106d95750630b135d3f60e11b91506107029050565b6106e4828686610c4d565b156106fb5750630b135d3f60e11b91506107029050565b6000925050505b92915050565b42600054111561072b57604051636315bfbb60e01b815260040160405180910390fd5b6000610735610438565b90506001600160a01b03811633146107605760405163ea8e4eb560e01b815260040160405180910390fd5b6001600160a01b0381811660008181526001602090815260409182902080546001600160a01b031916948716948517905581519283528201929092527f0ef3c7eb9dbcf33ddf032f4cce366a07eda85eed03e3172e4a90c4cc16d5788691015b60405180910390a15050565b60604260005411156107f157604051636315bfbb60e01b815260040160405180910390fd5b6000600160006107ff610438565b6001600160a01b03908116825260208201929092526040016000205416905033811461083e5760405163ea8e4eb560e01b815260040160405180910390fd5b61084a868686866104ce565b9695505050505050565b606042600054111561087957604051636315bfbb60e01b815260040160405180910390fd5b6000610883610438565b9050336001600160a01b0382161461083e5760405163ea8e4eb560e01b815260040160405180910390fd5b60604260005411156108d357604051636315bfbb60e01b815260040160405180910390fd5b60006108dd610c05565b505090504681036109015760405163ea8e4eb560e01b815260040160405180910390fd5b60405163c8552afd60e01b8152600481018290523360248201527f00000000000000000000000000000000000000000000000000000000000000006001600160a01b03169063c8552afd90604401602060405180830381865afa15801561096c573d6000803e3d6000fd5b505050506040513d601f19601f8201168201806040525081019061099091906113fd565b61083e5760405163ea8e4eb560e01b815260040160405180910390fd5b4260005411156109d057604051636315bfbb60e01b815260040160405180910390fd5b6109de426301e1338061141f565b8111156109fe576040516301814f7d60e31b815260040160405180910390fd5b6000610a08610438565b90506001600160a01b0381163314610a335760405163ea8e4eb560e01b815260040160405180910390fd5b60008290556040518281527fa7b24c66dd3269a292a60b3facdbb8f3e7557d1e19e64d99e0d6ee7250be63ad906020016107c0565b600080610a73610c05565b9094909350915050565b600080600080610a8b610c05565b925092509250468314610b325760405163c8552afd60e01b8152600481018490526001600160a01b0386811660248301527f0000000000000000000000000000000000000000000000000000000000000000169063c8552afd90604401602060405180830381865afa158015610b05573d6000803e3d6000fd5b505050506040513d601f19601f82011682018060405250810190610b2991906113fd565b95945050505050565b6040516331a9108f60e11b8152600481018290526000906001600160a01b03841690636352211e90602401602060405180830381865afa158015610b7a573d6000803e3d6000fd5b505050506040513d601f19601f82011682018060405250810190610b9e91906113d0565b9050806001600160a01b0316866001600160a01b031603610bc55750600195945050505050565b6001600160a01b038082166000908152600160205260409020548116908716819003610bf8575060019695505050505050565b5060009695505050505050565b600080600080610c1430610ca4565b90508051600003610c2d57506000938493508392509050565b80806020019051810190610c419190611440565b93509350935050909192565b6000806000610c5c8585610cbd565b90925090506000816004811115610c7557610c75611479565b148015610c935750856001600160a01b0316826001600160a01b0316145b8061084a575061084a868686610d02565b60606001600160a01b0382163b61066a83602e83610dee565b6000808251604103610cf35760208301516040840151606085015160001a610ce787828585610ea7565b94509450505050610cfb565b506000905060025b9250929050565b6000806000856001600160a01b0316631626ba7e60e01b8686604051602401610d2c92919061148f565b60408051601f198184030181529181526020820180516001600160e01b03166001600160e01b0319909416939093179092529051610d6a91906114b0565b600060405180830381855afa9150503d8060008114610da5576040519150601f19603f3d011682016040523d82523d6000602084013e610daa565b606091505b5091509150818015610dbe57506020815110155b801561084a57508051630b135d3f60e11b90610de390830160209081019084016114cc565b149695505050505050565b6060833b6000819003610e1157505060408051602081019091526000815261066a565b80841115610e2f57505060408051602081019091526000815261066a565b83831015610e655760405163162544fd60e11b815260048101829052602481018590526044810184905260640160405180910390fd5b8383038482036000828210610e7a5782610e7c565b815b60408051603f8301601f19168101909152818152955090508087602087018a3c505050509392505050565b6000807f7fffffffffffffffffffffffffffffff5d576e7357a4501ddfe92f46681b20a0831115610ede5750600090506003610f62565b6040805160008082526020820180845289905260ff881692820192909252606081018690526080810185905260019060a0016020604051602081039080840390855afa158015610f32573d6000803e3d6000fd5b5050604051601f1901519150506001600160a01b038116610f5b57600060019250925050610f62565b9150600090505b94509492505050565b600060208284031215610f7d57600080fd5b81356001600160e01b03198116811461066a57600080fd5b6001600160a01b0381168114610faa57600080fd5b50565b634e487b7160e01b600052604160045260246000fd5b604051601f8201601f1916810167ffffffffffffffff81118282101715610fec57610fec610fad565b604052919050565b600082601f83011261100557600080fd5b813567ffffffffffffffff81111561101f5761101f610fad565b611032601f8201601f1916602001610fc3565b81815284602083860101111561104757600080fd5b816020850160208301376000918101602001919091529392505050565b6000806000806080858703121561107a57600080fd5b843561108581610f95565b9350602085013561109581610f95565b925060408501359150606085013567ffffffffffffffff8111156110b857600080fd5b6110c487828801610ff4565b91505092959194509250565b600080604083850312156110e357600080fd5b82359150602083013567ffffffffffffffff81111561110157600080fd5b61110d85828601610ff4565b9150509250929050565b60006020828403121561112957600080fd5b813561066a81610f95565b6000806000806060858703121561114a57600080fd5b843561115581610f95565b935060208501359250604085013567ffffffffffffffff8082111561117957600080fd5b818701915087601f83011261118d57600080fd5b81358181111561119c57600080fd5b8860208285010111156111ae57600080fd5b95989497505060200194505050565b60005b838110156111d85781810151838201526020016111c0565b50506000910152565b600081518084526111f98160208601602086016111bd565b601f01601f19169290920160200192915050565b60208152600061066a60208301846111e1565b600082601f83011261123157600080fd5b8135602067ffffffffffffffff82111561124d5761124d610fad565b8160051b61125c828201610fc3565b928352848101820192828101908785111561127657600080fd5b83870192505b848310156112955782358252918301919083019061127c565b979650505050505050565b600080600080600060a086880312156112b857600080fd5b85356112c381610f95565b945060208601356112d381610f95565b9350604086013567ffffffffffffffff808211156112f057600080fd5b6112fc89838a01611220565b9450606088013591508082111561131257600080fd5b61131e89838a01611220565b9350608088013591508082111561133457600080fd5b5061134188828901610ff4565b9150509295509295909350565b60006020828403121561136057600080fd5b5035919050565b600080600080600060a0868803121561137f57600080fd5b853561138a81610f95565b9450602086013561139a81610f95565b93506040860135925060608601359150608086013567ffffffffffffffff8111156113c457600080fd5b61134188828901610ff4565b6000602082840312156113e257600080fd5b815161066a81610f95565b8183823760009101908152919050565b60006020828403121561140f57600080fd5b8151801515811461066a57600080fd5b8082018082111561070257634e487b7160e01b600052601160045260246000fd5b60008060006060848603121561145557600080fd5b83519250602084015161146781610f95565b80925050604084015190509250925092565b634e487b7160e01b600052602160045260246000fd5b8281526040602082015260006114a860408301846111e1565b949350505050565b600082516114c28184602087016111bd565b9190910192915050565b6000602082840312156114de57600080fd5b505191905056fea26469706673582212200c50157f8c152844118c3c8291f6b307afa8e105908c66e7a5f237b9dc6e2f1164736f6c63430008120033",
  "linkReferences": {},
  "deployedLinkReferences": {}
}