{
  "_format": "hh-sol-artifact-1",
  "contractName": "MemorySBT",
  "sourceName": "contracts/MemorySBT.sol",
  "abi": [
    {
      "inputs": [],
      "stateMutability": "nonpayable",
      "type": "constructor"
    },
    {
      "anonymous": false,
      "inputs": [
        {
          "indexed": true,
          "internalType": "address",
          "name": "owner",
          "type": "address"
        },
        {
          "indexed": true,
          "internalType": "address",
          "name": "approved",
          "type": "address"
        },
        {
          "indexed": true,
          "internalType": "uint256",
          "name": "tokenId",
          "type": "uint256"
        }
      ],
      "name": "Approval",
      "type": "event"
    },
    {
      "anonymous": false,
      "inputs": [
        {
          "indexed": true,
          "internalType": "address",
          "name": "owner",
          "type": "address"
        },
        {
          "indexed": true,
          "internalType": "address",
          "name": "operator",
          "type": "address"
        },
        {
          "indexed": false,
          "internalType": "bool",
          "name": "approved",
          "type": "bool"
        }
      ],
      "name": "ApprovalForAll",
      "type": "event"
    },
    {
      "anonymous": false,
      "inputs": [
        {
          "indexed": true,
          "internalType": "address",
          "name": "previousOwner",
          "type": "address"
        },
        {
          "indexed": true,
          "internalType": "address",
          "name": "newOwner",
          "type": "address"
        }
      ],
      "name": "OwnershipTransferred",
      "type": "event"
    },
    {
      "anonymous": false,
      "inputs": [
        {
          "indexed": false,
          "internalType": "address",
          "name": "account",
          "type": "address"
        }
      ],
      "name": "Paused",
      "type": "event"
    },
    {
      "anonymous": false,
      "inputs": [
        {
          "indexed": true,
          "internalType": "address",
          "name": "from",
          "type": "address"
        },
        {
          "indexed": true,
          "internalType": "address",
          "name": "to",
          "type": "address"
        },
        {
          "indexed": true,
          "internalType": "uint256",
          "name": "tokenId",
          "type": "uint256"
        }
      ],
      "name": "Transfer",
      "type": "event"
    },
    {
      "anonymous": false,
      "inputs": [
        {
          "indexed": false,
          "internalType": "address",
          "name": "account",
          "type": "address"
        }
      ],
      "name": "Unpaused",
      "type": "event"
    },
    {
      "inputs": [
        {
          "internalType": "address",
          "name": "to",
          "type": "address"
        },
        {
          "internalType": "uint256",
          "name": "tokenId",
          "type": "uint256"
        }
      ],
      "name": "approve",
      "outputs": [],
      "stateMutability": "nonpayable",
      "type": "function"
    },
    {
      "inputs": [
        {
          "internalType": "address",
          "name": "owner",
          "type": "address"
        }
      ],
      "name": "balanceOf",
      "outputs": [
        {
          "internalType": "uint256",
          "name": "",
          "type": "uint256"
        }
      ],
      "stateMutability": "view",
      "type": "function"
    },
    {
      "inputs": [
        {
          "internalType": "uint256",
          "name": "_tokenId",
          "type": "uint256"
        }
      ],
      "name": "burn",
      "outputs": [],
      "stateMutability": "nonpayable",
      "type": "function"
    },
    {
      "inputs": [
        {
          "internalType": "uint256",
          "name": "tokenId",
          "type": "uint256"
        }
      ],
      "name": "getApproved",
      "outputs": [
        {
          "internalType": "address",
          "name": "",
          "type": "address"
        }
      ],
      "stateMutability": "view",
      "type": "function"
    },
    {
      "inputs": [
        {
          "internalType": "address",
          "name": "owner",
          "type": "address"
        },
        {
          "internalType": "address",
          "name": "operator",
          "type": "address"
        }
      ],
      "name": "isApprovedForAll",
      "outputs": [
        {
          "internalType": "bool",
          "name": "",
          "type": "bool"
        }
      ],
      "stateMutability": "view",
      "type": "function"
    },
    {
      "inputs": [],
      "name": "name",
      "outputs": [
        {
          "internalType": "string",
          "name": "",
          "type": "string"
        }
      ],
      "stateMutability": "view",
      "type": "function"
    },
    {
      "inputs": [],
      "name": "owner",
      "outputs": [
        {
          "internalType": "address",
          "name": "",
          "type": "address"
        }
      ],
      "stateMutability": "view",
      "type": "function"
    },
    {
      "inputs": [
        {
          "internalType": "uint256",
          "name": "tokenId",
          "type": "uint256"
        }
      ],
      "name": "ownerOf",
      "outputs": [
        {
          "internalType": "address",
          "name": "",
          "type": "address"
        }
      ],
      "stateMutability": "view",
      "type": "function"
    },
    {
      "inputs": [],
      "name": "pause",
      "outputs": [],
      "stateMutability": "nonpayable",
      "type": "function"
    },
    {
      "inputs": [],
      "name": "paused",
      "outputs": [
        {
          "internalType": "bool",
          "name": "",
          "type": "bool"
        }
      ],
      "stateMutability": "view",
      "type": "function"
    },
    {
      "inputs": [],
      "name": "renounceOwnership",
      "outputs": [],
      "stateMutability": "nonpayable",
      "type": "function"
    },
    {
      "inputs": [
        {
          "internalType": "address",
          "name": "to",
          "type": "address"
        },
        {
          "internalType": "uint256",
          "name": "tokenId",
          "type": "uint256"
        }
      ],
      "name": "safeMint",
      "outputs": [],
      "stateMutability": "nonpayable",
      "type": "function"
    },
    {
      "inputs": [
        {
          "internalType": "address",
          "name": "from",
          "type": "address"
        },
        {
          "internalType": "address",
          "name": "to",
          "type": "address"
        },
        {
          "internalType": "uint256",
          "name": "tokenId",
          "type": "uint256"
        }
      ],
      "name": "safeTransferFrom",
      "outputs": [],
      "stateMutability": "nonpayable",
      "type": "function"
    },
    {
      "inputs": [
        {
          "internalType": "address",
          "name": "from",
          "type": "address"
        },
        {
          "internalType": "address",
          "name": "to",
          "type": "address"
        },
        {
          "internalType": "uint256",
          "name": "tokenId",
          "type": "uint256"
        },
        {
          "internalType": "bytes",
          "name": "data",
          "type": "bytes"
        }
      ],
      "name": "safeTransferFrom",
      "outputs": [],
      "stateMutability": "nonpayable",
      "type": "function"
    },
    {
      "inputs": [
        {
          "internalType": "address",
          "name": "operator",
          "type": "address"
        },
        {
          "internalType": "bool",
          "name": "approved",
          "type": "bool"
        }
      ],
      "name": "setApprovalForAll",
      "outputs": [],
      "stateMutability": "nonpayable",
      "type": "function"
    },
    {
      "inputs": [
        {
          "internalType": "bytes4",
          "name": "interfaceId",
          "type": "bytes4"
        }
      ],
      "name": "supportsInterface",
      "outputs": [
        {
          "internalType": "bool",
          "name": "",
          "type": "bool"
        }
      ],
      "stateMutability": "view",
      "type": "function"
    },
    {
      "inputs": [],
      "name": "symbol",
      "outputs": [
        {
          "internalType": "string",
          "name": "",
          "type": "string"
        }
      ],
      "stateMutability": "view",
      "type": "function"
    },
    {
      "inputs": [
        {
          "internalType": "uint256",
          "name": "tokenId",
          "type": "uint256"
        }
      ],
      "name": "tokenURI",
      "outputs": [
        {
          "internalType": "string",
          "name": "",
          "type": "string"
        }
      ],
      "stateMutability": "view",
      "type": "function"
    },
    {
      "inputs": [
        {
          "internalType": "address",
          "name": "from",
          "type": "address"
        },
        {
          "internalType": "address",
          "name": "to",
          "type": "address"
        },
        {
          "internalType": "uint256",
          "name": "tokenId",
          "type": "uint256"
        }
      ],
      "name": "transferFrom",
      "outputs": [],
      "stateMutability": "nonpayable",
      "type": "function"
    },
    {
      "inputs": [
        {
          "internalType": "address",
          "name": "newOwner",
          "type": "address"
        }
      ],
      "name": "transferOwnership",
      "outputs": [],
      "stateMutability": "nonpayable",
      "type": "function"
    },
    {
      "inputs": [],
      "name": "unpause",
      "outputs": [],
      "stateMutability": "nonpayable",
      "type": "function"
    },
    {
      "inputs": [],
      "name": "withdraw",
      "outputs": [],
      "stateMutability": "nonpayable",
      "type": "function"
    }
  ],
  "bytecode": "0x60806040523480156200001157600080fd5b506040518060400160405280601081526020016f434f2d667269656e64734d656d6f727960801b81525060405180604001604052806005815260200164434f4d454d60d81b81525081600090816200006a919062000196565b50600162000079828262000196565b50506006805460ff1916905550620000913362000097565b62000262565b600680546001600160a01b03838116610100818102610100600160a81b031985161790945560405193909204169182907f8be0079c531659141344cd1fd0a4f28419497f9722a3daafe3b4186f6b6457e090600090a35050565b634e487b7160e01b600052604160045260246000fd5b600181811c908216806200011c57607f821691505b6020821081036200013d57634e487b7160e01b600052602260045260246000fd5b50919050565b601f8211156200019157600081815260208120601f850160051c810160208610156200016c5750805b601f850160051c820191505b818110156200018d5782815560010162000178565b5050505b505050565b81516001600160401b03811115620001b257620001b2620000f1565b620001ca81620001c3845462000107565b8462000143565b602080601f831160018114620002025760008415620001e95750858301515b600019600386901b1c1916600185901b1785556200018d565b600085815260208120601f198616915b82811015620002335788860151825594840194600190910190840162000212565b5085821015620002525787850151600019600388901b60f8161c191681555b5050505050600190811b01905550565b6118f680620002726000396000f3fe608060405234801561001057600080fd5b50600436106101425760003560e01c806370a08231116100b8578063a14481941161007c578063a14481941461027a578063a22cb4651461028d578063b88d4fde146102a0578063c87b56dd146102b3578063e985e9c5146102c6578063f2fde38b1461030257600080fd5b806370a082311461022b578063715018a61461024c5780638456cb59146102545780638da5cb5b1461025c57806395d89b411461027257600080fd5b80633ccfd60b1161010a5780633ccfd60b146101d75780633f4ba83a146101df57806342842e0e146101e757806342966c68146101fa5780635c975abb1461020d5780636352211e1461021857600080fd5b806301ffc9a71461014757806306fdde031461016f578063081812fc14610184578063095ea7b3146101af57806323b872dd146101c4575b600080fd5b61015a610155366004611450565b610315565b60405190151581526020015b60405180910390f35b610177610367565b60405161016691906114bd565b6101976101923660046114d0565b6103f9565b6040516001600160a01b039091168152602001610166565b6101c26101bd366004611505565b610420565b005b6101c26101d236600461152f565b61053a565b6101c261056b565b6101c2610590565b6101c26101f536600461152f565b6105a0565b6101c26102083660046114d0565b6105bb565b60065460ff1661015a565b6101976102263660046114d0565b6105cf565b61023e61023936600461156b565b61062f565b604051908152602001610166565b6101c26106b5565b6101c26106bd565b60065461010090046001600160a01b0316610197565b6101776106cd565b6101c2610288366004611505565b6106dc565b6101c261029b366004611586565b6106f2565b6101c26102ae3660046115d8565b6106fd565b6101776102c13660046114d0565b610735565b61015a6102d43660046116b4565b6001600160a01b03918216600090815260056020908152604080832093909416825291909152205460ff1690565b6101c261031036600461156b565b61079c565b60006001600160e01b031982166380ac58cd60e01b148061034657506001600160e01b03198216635b5e139f60e01b145b8061036157506301ffc9a760e01b6001600160e01b03198316145b92915050565b606060008054610376906116e7565b80601f01602080910402602001604051908101604052809291908181526020018280546103a2906116e7565b80156103ef5780601f106103c4576101008083540402835291602001916103ef565b820191906000526020600020905b8154815290600101906020018083116103d257829003601f168201915b5050505050905090565b600061040482610812565b506000908152600460205260409020546001600160a01b031690565b600061042b826105cf565b9050806001600160a01b0316836001600160a01b03160361049d5760405162461bcd60e51b815260206004820152602160248201527f4552433732313a20617070726f76616c20746f2063757272656e74206f776e656044820152603960f91b60648201526084015b60405180910390fd5b336001600160a01b03821614806104b957506104b981336102d4565b61052b5760405162461bcd60e51b815260206004820152603d60248201527f4552433732313a20617070726f76652063616c6c6572206973206e6f7420746f60448201527f6b656e206f776e6572206f7220617070726f76656420666f7220616c6c0000006064820152608401610494565b6105358383610871565b505050565b61054433826108df565b6105605760405162461bcd60e51b815260040161049490611721565b61053583838361095e565b610573610acf565b60065461058e9061010090046001600160a01b031647610b2f565b565b610598610acf565b61058e610c48565b610535838383604051806020016040528060008152506106fd565b6105c3610acf565b6105cc81610c9a565b50565b6000818152600260205260408120546001600160a01b0316806103615760405162461bcd60e51b8152602060048201526018602482015277115490cdcc8c4e881a5b9d985b1a59081d1bdad95b88125160421b6044820152606401610494565b60006001600160a01b0382166106995760405162461bcd60e51b815260206004820152602960248201527f4552433732313a2061646472657373207a65726f206973206e6f7420612076616044820152683634b21037bbb732b960b91b6064820152608401610494565b506001600160a01b031660009081526003602052604090205490565b61058e610acf565b6106c5610acf565b61058e610d3d565b606060018054610376906116e7565b6106e4610acf565b6106ee8282610d7a565b5050565b6106ee338383610d94565b61070733836108df565b6107235760405162461bcd60e51b815260040161049490611721565b61072f84848484610e62565b50505050565b606061074082610812565b600061074a610e95565b9050600081511161076a5760405180602001604052806000815250610795565b8061077484610eb5565b60405160200161078592919061176e565b6040516020818303038152906040525b9392505050565b6107a4610acf565b6001600160a01b0381166108095760405162461bcd60e51b815260206004820152602660248201527f4f776e61626c653a206e6577206f776e657220697320746865207a65726f206160448201526564647265737360d01b6064820152608401610494565b6105cc81610f48565b6000818152600260205260409020546001600160a01b03166105cc5760405162461bcd60e51b8152602060048201526018602482015277115490cdcc8c4e881a5b9d985b1a59081d1bdad95b88125160421b6044820152606401610494565b600081815260046020526040902080546001600160a01b0319166001600160a01b03841690811790915581906108a6826105cf565b6001600160a01b03167f8c5be1e5ebec7d5bd14f71427d1e84f3dd0314c0f7b2291e5b200ac8c7c3b92560405160405180910390a45050565b6000806108eb836105cf565b9050806001600160a01b0316846001600160a01b0316148061093257506001600160a01b0380821660009081526005602090815260408083209388168352929052205460ff165b806109565750836001600160a01b031661094b846103f9565b6001600160a01b0316145b949350505050565b826001600160a01b0316610971826105cf565b6001600160a01b0316146109975760405162461bcd60e51b81526004016104949061179d565b6001600160a01b0382166109f95760405162461bcd60e51b8152602060048201526024808201527f4552433732313a207472616e7366657220746f20746865207a65726f206164646044820152637265737360e01b6064820152608401610494565b610a068383836001610fa2565b826001600160a01b0316610a19826105cf565b6001600160a01b031614610a3f5760405162461bcd60e51b81526004016104949061179d565b600081815260046020908152604080832080546001600160a01b03199081169091556001600160a01b0387811680865260038552838620805460001901905590871680865283862080546001019055868652600290945282852080549092168417909155905184937fddf252ad1be2c89b69c2b068fc378daa952ba7f163c4a11628f55a4df523b3ef91a4505050565b6006546001600160a01b0361010090910416331461058e5760405162461bcd60e51b815260206004820181905260248201527f4f776e61626c653a2063616c6c6572206973206e6f7420746865206f776e65726044820152606401610494565b80471015610b7f5760405162461bcd60e51b815260206004820152601d60248201527f416464726573733a20696e73756666696369656e742062616c616e63650000006044820152606401610494565b6000826001600160a01b03168260405160006040518083038185875af1925050503d8060008114610bcc576040519150601f19603f3d011682016040523d82523d6000602084013e610bd1565b606091505b50509050806105355760405162461bcd60e51b815260206004820152603a60248201527f416464726573733a20756e61626c6520746f2073656e642076616c75652c207260448201527f6563697069656e74206d617920686176652072657665727465640000000000006064820152608401610494565b610c50611006565b6006805460ff191690557f5db9ee0a495bf2e6ff9c91a7834c1ba4fdd244a5e8aa4e537bd38aeae4b073aa335b6040516001600160a01b03909116815260200160405180910390a1565b6000610ca5826105cf565b9050610cb5816000846001610fa2565b610cbe826105cf565b600083815260046020908152604080832080546001600160a01b03199081169091556001600160a01b0385168085526003845282852080546000190190558785526002909352818420805490911690555192935084927fddf252ad1be2c89b69c2b068fc378daa952ba7f163c4a11628f55a4df523b3ef908390a45050565b610d4561104f565b6006805460ff191660011790557f62e78cea01bee320cd4e420270b5ea74000d11b0c9f74754ebdbfc544b05a258610c7d3390565b6106ee828260405180602001604052806000815250611095565b816001600160a01b0316836001600160a01b031603610df55760405162461bcd60e51b815260206004820152601960248201527f4552433732313a20617070726f766520746f2063616c6c6572000000000000006044820152606401610494565b6001600160a01b03838116600081815260056020908152604080832094871680845294825291829020805460ff191686151590811790915591519182527f17307eab39ab6107e8899845ad3d59bd9653f200f220920489ca2b5937696c31910160405180910390a3505050565b610e6d84848461095e565b610e79848484846110c8565b61072f5760405162461bcd60e51b8152600401610494906117e2565b606060405180606001604052806032815260200161188f60329139905090565b60606000610ec2836111c9565b600101905060008167ffffffffffffffff811115610ee257610ee26115c2565b6040519080825280601f01601f191660200182016040528015610f0c576020820181803683370190505b5090508181016020015b600019016f181899199a1a9b1b9c1cb0b131b232b360811b600a86061a8153600a8504945084610f1657509392505050565b600680546001600160a01b03838116610100818102610100600160a81b031985161790945560405193909204169182907f8be0079c531659141344cd1fd0a4f28419497f9722a3daafe3b4186f6b6457e090600090a35050565b610faa61104f565b6001600160a01b038416156110015760405162461bcd60e51b815260206004820152601860248201527f4572723a20746f6b656e20697320534f554c20424f554e4400000000000000006044820152606401610494565b61072f565b60065460ff1661058e5760405162461bcd60e51b815260206004820152601460248201527314185d5cd8589b194e881b9bdd081c185d5cd95960621b6044820152606401610494565b60065460ff161561058e5760405162461bcd60e51b815260206004820152601060248201526f14185d5cd8589b194e881c185d5cd95960821b6044820152606401610494565b61109f83836112a1565b6110ac60008484846110c8565b6105355760405162461bcd60e51b8152600401610494906117e2565b60006001600160a01b0384163b156111be57604051630a85bd0160e11b81526001600160a01b0385169063150b7a029061110c903390899088908890600401611834565b6020604051808303816000875af1925050508015611147575060408051601f3d908101601f1916820190925261114491810190611871565b60015b6111a4573d808015611175576040519150601f19603f3d011682016040523d82523d6000602084013e61117a565b606091505b50805160000361119c5760405162461bcd60e51b8152600401610494906117e2565b805181602001fd5b6001600160e01b031916630a85bd0160e11b149050610956565b506001949350505050565b60008072184f03e93ff9f4daa797ed6e38ed64bf6a1f0160401b83106112085772184f03e93ff9f4daa797ed6e38ed64bf6a1f0160401b830492506040015b6d04ee2d6d415b85acef81000000008310611234576d04ee2d6d415b85acef8100000000830492506020015b662386f26fc10000831061125257662386f26fc10000830492506010015b6305f5e100831061126a576305f5e100830492506008015b612710831061127e57612710830492506004015b60648310611290576064830492506002015b600a83106103615760010192915050565b6001600160a01b0382166112f75760405162461bcd60e51b815260206004820181905260248201527f4552433732313a206d696e7420746f20746865207a65726f20616464726573736044820152606401610494565b6000818152600260205260409020546001600160a01b03161561135c5760405162461bcd60e51b815260206004820152601c60248201527f4552433732313a20746f6b656e20616c7265616479206d696e746564000000006044820152606401610494565b61136a600083836001610fa2565b6000818152600260205260409020546001600160a01b0316156113cf5760405162461bcd60e51b815260206004820152601c60248201527f4552433732313a20746f6b656e20616c7265616479206d696e746564000000006044820152606401610494565b6001600160a01b038216600081815260036020908152604080832080546001019055848352600290915280822080546001600160a01b0319168417905551839291907fddf252ad1be2c89b69c2b068fc378daa952ba7f163c4a11628f55a4df523b3ef908290a45050565b6001600160e01b0319811681146105cc57600080fd5b60006020828403121561146257600080fd5b81356107958161143a565b60005b83811015611488578181015183820152602001611470565b50506000910152565b600081518084526114a981602086016020860161146d565b601f01601f19169290920160200192915050565b6020815260006107956020830184611491565b6000602082840312156114e257600080fd5b5035919050565b80356001600160a01b038116811461150057600080fd5b919050565b6000806040838503121561151857600080fd5b611521836114e9565b946020939093013593505050565b60008060006060848603121561154457600080fd5b61154d846114e9565b925061155b602085016114e9565b9150604084013590509250925092565b60006020828403121561157d57600080fd5b610795826114e9565b6000806040838503121561159957600080fd5b6115a2836114e9565b9150602083013580151581146115b757600080fd5b809150509250929050565b634e487b7160e01b600052604160045260246000fd5b600080600080608085870312156115ee57600080fd5b6115f7856114e9565b9350611605602086016114e9565b925060408501359150606085013567ffffffffffffffff8082111561162957600080fd5b818701915087601f83011261163d57600080fd5b81358181111561164f5761164f6115c2565b604051601f8201601f19908116603f01168101908382118183101715611677576116776115c2565b816040528281528a602084870101111561169057600080fd5b82602086016020830137600060208483010152809550505050505092959194509250565b600080604083850312156116c757600080fd5b6116d0836114e9565b91506116de602084016114e9565b90509250929050565b600181811c908216806116fb57607f821691505b60208210810361171b57634e487b7160e01b600052602260045260246000fd5b50919050565b6020808252602d908201527f4552433732313a2063616c6c6572206973206e6f7420746f6b656e206f776e6560408201526c1c881bdc88185c1c1c9bdd9959609a1b606082015260800190565b6000835161178081846020880161146d565b83519083019061179481836020880161146d565b01949350505050565b60208082526025908201527f4552433732313a207472616e736665722066726f6d20696e636f72726563742060408201526437bbb732b960d91b606082015260800190565b60208082526032908201527f4552433732313a207472616e7366657220746f206e6f6e20455243373231526560408201527131b2b4bb32b91034b6b83632b6b2b73a32b960711b606082015260800190565b6001600160a01b038581168252841660208201526040810183905260806060820181905260009061186790830184611491565b9695505050505050565b60006020828403121561188357600080fd5b81516107958161143a56fe68747470733a2f2f636f2d667269656e642d6465762e7363692d636f2e636f2e6a702f636f6d656d2f6d657461646174612fa26469706673582212209da9e4424fb5ad487ccd02034a48cbfb8559aba2007aadd03f8498b7b3227fef64736f6c63430008120033",
  "linkReferences": {},
  "deployedLinkReferences": {}
}