{
  "_format": "hh-sol-artifact-1",
  "contractName": "AccountRegistry",
  "sourceName": "contracts/AccountRegistry.sol",
  "abi": [
    {
      "inputs": [
        {
          "internalType": "address",
          "name": "_implementation",
          "type": "address"
        }
      ],
      "stateMutability": "nonpayable",
      "type": "constructor"
    },
    {
      "inputs": [],
      "name": "CreateError",
      "type": "error"
    },
    {
      "anonymous": false,
      "inputs": [
        {
          "indexed": false,
          "internalType": "address",
          "name": "account",
          "type": "address"
        },
        {
          "indexed": true,
          "internalType": "address",
          "name": "tokenContract",
          "type": "address"
        },
        {
          "indexed": true,
          "internalType": "uint256",
          "name": "tokenId",
          "type": "uint256"
        }
      ],
      "name": "AccountCreated",
      "type": "event"
    },
    {
      "inputs": [
        {
          "internalType": "address",
          "name": "tokenCollection",
          "type": "address"
        },
        {
          "internalType": "uint256",
          "name": "tokenId",
          "type": "uint256"
        }
      ],
      "name": "account",
      "outputs": [
        {
          "internalType": "address",
          "name": "",
          "type": "address"
        }
      ],
      "stateMutability": "view",
      "type": "function"
    },
    {
      "inputs": [
        {
          "internalType": "uint256",
          "name": "chainId",
          "type": "uint256"
        },
        {
          "internalType": "address",
          "name": "tokenCollection",
          "type": "address"
        },
        {
          "internalType": "uint256",
          "name": "tokenId",
          "type": "uint256"
        }
      ],
      "name": "account",
      "outputs": [
        {
          "internalType": "address",
          "name": "",
          "type": "address"
        }
      ],
      "stateMutability": "view",
      "type": "function"
    },
    {
      "inputs": [
        {
          "internalType": "address",
          "name": "tokenCollection",
          "type": "address"
        },
        {
          "internalType": "uint256",
          "name": "tokenId",
          "type": "uint256"
        }
      ],
      "name": "createAccount",
      "outputs": [
        {
          "internalType": "address",
          "name": "",
          "type": "address"
        }
      ],
      "stateMutability": "nonpayable",
      "type": "function"
    },
    {
      "inputs": [
        {
          "internalType": "uint256",
          "name": "chainId",
          "type": "uint256"
        },
        {
          "internalType": "address",
          "name": "tokenCollection",
          "type": "address"
        },
        {
          "internalType": "uint256",
          "name": "tokenId",
          "type": "uint256"
        }
      ],
      "name": "createAccount",
      "outputs": [
        {
          "internalType": "address",
          "name": "",
          "type": "address"
        }
      ],
      "stateMutability": "nonpayable",
      "type": "function"
    },
    {
      "inputs": [],
      "name": "implementation",
      "outputs": [
        {
          "internalType": "address",
          "name": "",
          "type": "address"
        }
      ],
      "stateMutability": "view",
      "type": "function"
    }
  ],
  "bytecode": "0x60a060405234801561001057600080fd5b5060405161058b38038061058b83398101604081905261002f91610040565b6001600160a01b0316608052610070565b60006020828403121561005257600080fd5b81516001600160a01b038116811461006957600080fd5b9392505050565b6080516104f36100986000396000818160900152818161017801526101f501526104f36000f3fe608060405234801561001057600080fd5b50600436106100575760003560e01c8063192df6551461005c5780635c60da1b1461008b5780635fbfb9cf146100b2578063d78c14cc146100c5578063dd8abeba146100d8575b600080fd5b61006f61006a36600461037c565b6100eb565b6040516001600160a01b03909116815260200160405180910390f35b61006f7f000000000000000000000000000000000000000000000000000000000000000081565b61006f6100c036600461037c565b610101565b61006f6100d33660046103a6565b61010e565b61006f6100e63660046103a6565b610123565b60006100f846848461012c565b90505b92915050565b60006100f84684846101a9565b600061011b8484846101a9565b949350505050565b600061011b8484845b60408051602081018590526001600160a01b0384169181019190915260608101829052600090819060800160408051601f1981840301815291905280516020820120909150600061019e7f0000000000000000000000000000000000000000000000000000000000000000848461026a565b979650505050505050565b60408051602081018590526001600160a01b0384169181019190915260608101829052600090819060800160408051601f1981840301815291905280516020820120909150600061021b7f00000000000000000000000000000000000000000000000000000000000000008484610278565b6040516001600160a01b03808316825291925086918816907f33310a89c32d8cc00057ad6ef6274d2f8fe22389a992cf89983e09fc84f6cfff9060200160405180910390a39695505050505050565b600061011b848484306102c2565b60008061028585856102ed565b9050828151602083016000f591506001600160a01b0382166102ba57604051630985da9b60e41b815260040160405180910390fd5b509392505050565b6000806102cf86866102ed565b90506102e384828051906020012085610336565b9695505050505050565b60608151602d6102fd91906103db565b6103089060016103db565b600b848460405160200161031f94939291906103fc565b604051602081830303815290604052905092915050565b6000604051836040820152846020820152828152600b8101905060ff815360559020949350505050565b80356001600160a01b038116811461037757600080fd5b919050565b6000806040838503121561038f57600080fd5b61039883610360565b946020939093013593505050565b6000806000606084860312156103bb57600080fd5b833592506103cb60208501610360565b9150604084013590509250925092565b808201808211156100fb57634e487b7160e01b600052601160045260246000fd5b613d6160f01b815260f085901b6001600160f01b031916600282015261040360f51b600482015260f884901b6001600160f81b03191660068201526d3d3981f3363d3d373d3d3d363d7360901b6007820152606083901b6bffffffffffffffffffffffff191660158201526e5af43d82803e903d91602b57fd5bf360881b60298201526000603882018190528251815b818110156104a9576020818601810151603986840101520161048c565b50600092016039019182525094935050505056fea264697066735822122061fc91d5fdb6ccd429c1dee7a5503a6deefde24ac4b1916a5ddb2052e2f681ae64736f6c63430008120033",
  "linkReferences": {},
  "deployedLinkReferences": {}
}