{
  "_format": "hh-sol-artifact-1",
  "contractName": "MemorySBT",
  "sourceName": "contracts/MemorySBT.sol",
  "abi": [
    {
      "inputs": [],
      "stateMutability": "nonpayable",
      "type": "constructor"
    },
    {
      "anonymous": false,
      "inputs": [
        {
          "indexed": true,
          "internalType": "address",
          "name": "owner",
          "type": "address"
        },
        {
          "indexed": true,
          "internalType": "address",
          "name": "approved",
          "type": "address"
        },
        {
          "indexed": true,
          "internalType": "uint256",
          "name": "tokenId",
          "type": "uint256"
        }
      ],
      "name": "Approval",
      "type": "event"
    },
    {
      "anonymous": false,
      "inputs": [
        {
          "indexed": true,
          "internalType": "address",
          "name": "owner",
          "type": "address"
        },
        {
          "indexed": true,
          "internalType": "address",
          "name": "operator",
          "type": "address"
        },
        {
          "indexed": false,
          "internalType": "bool",
          "name": "approved",
          "type": "bool"
        }
      ],
      "name": "ApprovalForAll",
      "type": "event"
    },
    {
      "anonymous": false,
      "inputs": [
        {
          "indexed": true,
          "internalType": "address",
          "name": "previousOwner",
          "type": "address"
        },
        {
          "indexed": true,
          "internalType": "address",
          "name": "newOwner",
          "type": "address"
        }
      ],
      "name": "OwnershipTransferred",
      "type": "event"
    },
    {
      "anonymous": false,
      "inputs": [
        {
          "indexed": false,
          "internalType": "address",
          "name": "account",
          "type": "address"
        }
      ],
      "name": "Paused",
      "type": "event"
    },
    {
      "anonymous": false,
      "inputs": [
        {
          "indexed": true,
          "internalType": "address",
          "name": "from",
          "type": "address"
        },
        {
          "indexed": true,
          "internalType": "address",
          "name": "to",
          "type": "address"
        },
        {
          "indexed": true,
          "internalType": "uint256",
          "name": "tokenId",
          "type": "uint256"
        }
      ],
      "name": "Transfer",
      "type": "event"
    },
    {
      "anonymous": false,
      "inputs": [
        {
          "indexed": false,
          "internalType": "address",
          "name": "account",
          "type": "address"
        }
      ],
      "name": "Unpaused",
      "type": "event"
    },
    {
      "inputs": [
        {
          "internalType": "address",
          "name": "to",
          "type": "address"
        },
        {
          "internalType": "uint256",
          "name": "tokenId",
          "type": "uint256"
        }
      ],
      "name": "approve",
      "outputs": [],
      "stateMutability": "nonpayable",
      "type": "function"
    },
    {
      "inputs": [
        {
          "internalType": "address",
          "name": "owner",
          "type": "address"
        }
      ],
      "name": "balanceOf",
      "outputs": [
        {
          "internalType": "uint256",
          "name": "",
          "type": "uint256"
        }
      ],
      "stateMutability": "view",
      "type": "function"
    },
    {
      "inputs": [
        {
          "internalType": "uint256",
          "name": "tokenId",
          "type": "uint256"
        }
      ],
      "name": "getApproved",
      "outputs": [
        {
          "internalType": "address",
          "name": "",
          "type": "address"
        }
      ],
      "stateMutability": "view",
      "type": "function"
    },
    {
      "inputs": [
        {
          "internalType": "address",
          "name": "owner",
          "type": "address"
        },
        {
          "internalType": "address",
          "name": "operator",
          "type": "address"
        }
      ],
      "name": "isApprovedForAll",
      "outputs": [
        {
          "internalType": "bool",
          "name": "",
          "type": "bool"
        }
      ],
      "stateMutability": "view",
      "type": "function"
    },
    {
      "inputs": [],
      "name": "name",
      "outputs": [
        {
          "internalType": "string",
          "name": "",
          "type": "string"
        }
      ],
      "stateMutability": "view",
      "type": "function"
    },
    {
      "inputs": [],
      "name": "owner",
      "outputs": [
        {
          "internalType": "address",
          "name": "",
          "type": "address"
        }
      ],
      "stateMutability": "view",
      "type": "function"
    },
    {
      "inputs": [
        {
          "internalType": "uint256",
          "name": "tokenId",
          "type": "uint256"
        }
      ],
      "name": "ownerOf",
      "outputs": [
        {
          "internalType": "address",
          "name": "",
          "type": "address"
        }
      ],
      "stateMutability": "view",
      "type": "function"
    },
    {
      "inputs": [],
      "name": "pause",
      "outputs": [],
      "stateMutability": "nonpayable",
      "type": "function"
    },
    {
      "inputs": [],
      "name": "paused",
      "outputs": [
        {
          "internalType": "bool",
          "name": "",
          "type": "bool"
        }
      ],
      "stateMutability": "view",
      "type": "function"
    },
    {
      "inputs": [],
      "name": "renounceOwnership",
      "outputs": [],
      "stateMutability": "nonpayable",
      "type": "function"
    },
    {
      "inputs": [
        {
          "internalType": "address",
          "name": "to",
          "type": "address"
        },
        {
          "internalType": "uint256",
          "name": "tokenId",
          "type": "uint256"
        }
      ],
      "name": "safeMint",
      "outputs": [],
      "stateMutability": "nonpayable",
      "type": "function"
    },
    {
      "inputs": [
        {
          "internalType": "address",
          "name": "from",
          "type": "address"
        },
        {
          "internalType": "address",
          "name": "to",
          "type": "address"
        },
        {
          "internalType": "uint256",
          "name": "tokenId",
          "type": "uint256"
        }
      ],
      "name": "safeTransferFrom",
      "outputs": [],
      "stateMutability": "nonpayable",
      "type": "function"
    },
    {
      "inputs": [
        {
          "internalType": "address",
          "name": "from",
          "type": "address"
        },
        {
          "internalType": "address",
          "name": "to",
          "type": "address"
        },
        {
          "internalType": "uint256",
          "name": "tokenId",
          "type": "uint256"
        },
        {
          "internalType": "bytes",
          "name": "data",
          "type": "bytes"
        }
      ],
      "name": "safeTransferFrom",
      "outputs": [],
      "stateMutability": "nonpayable",
      "type": "function"
    },
    {
      "inputs": [
        {
          "internalType": "address",
          "name": "operator",
          "type": "address"
        },
        {
          "internalType": "bool",
          "name": "approved",
          "type": "bool"
        }
      ],
      "name": "setApprovalForAll",
      "outputs": [],
      "stateMutability": "nonpayable",
      "type": "function"
    },
    {
      "inputs": [
        {
          "internalType": "bytes4",
          "name": "interfaceId",
          "type": "bytes4"
        }
      ],
      "name": "supportsInterface",
      "outputs": [
        {
          "internalType": "bool",
          "name": "",
          "type": "bool"
        }
      ],
      "stateMutability": "view",
      "type": "function"
    },
    {
      "inputs": [],
      "name": "symbol",
      "outputs": [
        {
          "internalType": "string",
          "name": "",
          "type": "string"
        }
      ],
      "stateMutability": "view",
      "type": "function"
    },
    {
      "inputs": [
        {
          "internalType": "uint256",
          "name": "tokenId",
          "type": "uint256"
        }
      ],
      "name": "tokenURI",
      "outputs": [
        {
          "internalType": "string",
          "name": "",
          "type": "string"
        }
      ],
      "stateMutability": "view",
      "type": "function"
    },
    {
      "inputs": [
        {
          "internalType": "address",
          "name": "from",
          "type": "address"
        },
        {
          "internalType": "address",
          "name": "to",
          "type": "address"
        },
        {
          "internalType": "uint256",
          "name": "tokenId",
          "type": "uint256"
        }
      ],
      "name": "transferFrom",
      "outputs": [],
      "stateMutability": "nonpayable",
      "type": "function"
    },
    {
      "inputs": [
        {
          "internalType": "address",
          "name": "newOwner",
          "type": "address"
        }
      ],
      "name": "transferOwnership",
      "outputs": [],
      "stateMutability": "nonpayable",
      "type": "function"
    },
    {
      "inputs": [],
      "name": "unpause",
      "outputs": [],
      "stateMutability": "nonpayable",
      "type": "function"
    },
    {
      "inputs": [],
      "name": "withdraw",
      "outputs": [],
      "stateMutability": "nonpayable",
      "type": "function"
    }
  ],
  "bytecode": "0x60806040523480156200001157600080fd5b506040518060400160405280601081526020016f434f2d667269656e64734d656d6f727960801b81525060405180604001604052806005815260200164434f4d454d60d81b81525081600090816200006a919062000196565b50600162000079828262000196565b50506006805460ff1916905550620000913362000097565b62000262565b600680546001600160a01b03838116610100818102610100600160a81b031985161790945560405193909204169182907f8be0079c531659141344cd1fd0a4f28419497f9722a3daafe3b4186f6b6457e090600090a35050565b634e487b7160e01b600052604160045260246000fd5b600181811c908216806200011c57607f821691505b6020821081036200013d57634e487b7160e01b600052602260045260246000fd5b50919050565b601f8211156200019157600081815260208120601f850160051c810160208610156200016c5750805b601f850160051c820191505b818110156200018d5782815560010162000178565b5050505b505050565b81516001600160401b03811115620001b257620001b2620000f1565b620001ca81620001c3845462000107565b8462000143565b602080601f831160018114620002025760008415620001e95750858301515b600019600386901b1c1916600185901b1785556200018d565b600085815260208120601f198616915b82811015620002335788860151825594840194600190910190840162000212565b5085821015620002525787850151600019600388901b60f8161c191681555b5050505050600190811b01905550565b61182280620002726000396000f3fe608060405234801561001057600080fd5b50600436106101375760003560e01c806370a08231116100b8578063a14481941161007c578063a14481941461025c578063a22cb4651461026f578063b88d4fde14610282578063c87b56dd14610295578063e985e9c5146102a8578063f2fde38b146102e457600080fd5b806370a082311461020d578063715018a61461022e5780638456cb59146102365780638da5cb5b1461023e57806395d89b411461025457600080fd5b80633ccfd60b116100ff5780633ccfd60b146101cc5780633f4ba83a146101d457806342842e0e146101dc5780635c975abb146101ef5780636352211e146101fa57600080fd5b806301ffc9a71461013c57806306fdde0314610164578063081812fc14610179578063095ea7b3146101a457806323b872dd146101b9575b600080fd5b61014f61014a36600461137e565b6102f7565b60405190151581526020015b60405180910390f35b61016c610349565b60405161015b91906113eb565b61018c6101873660046113fe565b6103db565b6040516001600160a01b03909116815260200161015b565b6101b76101b2366004611433565b610402565b005b6101b76101c736600461145d565b61051c565b6101b761054d565b6101b7610572565b6101b76101ea36600461145d565b610582565b60065460ff1661014f565b61018c6102083660046113fe565b61059d565b61022061021b366004611499565b6105fd565b60405190815260200161015b565b6101b7610683565b6101b761068b565b60065461010090046001600160a01b031661018c565b61016c61069b565b6101b761026a366004611433565b6106aa565b6101b761027d3660046114b4565b6106c0565b6101b7610290366004611506565b6106cb565b61016c6102a33660046113fe565b610703565b61014f6102b63660046115e2565b6001600160a01b03918216600090815260056020908152604080832093909416825291909152205460ff1690565b6101b76102f2366004611499565b61076a565b60006001600160e01b031982166380ac58cd60e01b148061032857506001600160e01b03198216635b5e139f60e01b145b8061034357506301ffc9a760e01b6001600160e01b03198316145b92915050565b60606000805461035890611615565b80601f016020809104026020016040519081016040528092919081815260200182805461038490611615565b80156103d15780601f106103a6576101008083540402835291602001916103d1565b820191906000526020600020905b8154815290600101906020018083116103b457829003601f168201915b5050505050905090565b60006103e6826107e3565b506000908152600460205260409020546001600160a01b031690565b600061040d8261059d565b9050806001600160a01b0316836001600160a01b03160361047f5760405162461bcd60e51b815260206004820152602160248201527f4552433732313a20617070726f76616c20746f2063757272656e74206f776e656044820152603960f91b60648201526084015b60405180910390fd5b336001600160a01b038216148061049b575061049b81336102b6565b61050d5760405162461bcd60e51b815260206004820152603d60248201527f4552433732313a20617070726f76652063616c6c6572206973206e6f7420746f60448201527f6b656e206f776e6572206f7220617070726f76656420666f7220616c6c0000006064820152608401610476565b6105178383610842565b505050565b61052633826108b0565b6105425760405162461bcd60e51b81526004016104769061164f565b61051783838361092f565b610555610aa0565b6006546105709061010090046001600160a01b031647610b00565b565b61057a610aa0565b610570610c19565b610517838383604051806020016040528060008152506106cb565b6000818152600260205260408120546001600160a01b0316806103435760405162461bcd60e51b8152602060048201526018602482015277115490cdcc8c4e881a5b9d985b1a59081d1bdad95b88125160421b6044820152606401610476565b60006001600160a01b0382166106675760405162461bcd60e51b815260206004820152602960248201527f4552433732313a2061646472657373207a65726f206973206e6f7420612076616044820152683634b21037bbb732b960b91b6064820152608401610476565b506001600160a01b031660009081526003602052604090205490565b610570610aa0565b610693610aa0565b610570610c6b565b60606001805461035890611615565b6106b2610aa0565b6106bc8282610ca8565b5050565b6106bc338383610cc2565b6106d533836108b0565b6106f15760405162461bcd60e51b81526004016104769061164f565b6106fd84848484610d90565b50505050565b606061070e826107e3565b6000610718610dc3565b905060008151116107385760405180602001604052806000815250610763565b8061074284610de3565b60405160200161075392919061169c565b6040516020818303038152906040525b9392505050565b610772610aa0565b6001600160a01b0381166107d75760405162461bcd60e51b815260206004820152602660248201527f4f776e61626c653a206e6577206f776e657220697320746865207a65726f206160448201526564647265737360d01b6064820152608401610476565b6107e081610e76565b50565b6000818152600260205260409020546001600160a01b03166107e05760405162461bcd60e51b8152602060048201526018602482015277115490cdcc8c4e881a5b9d985b1a59081d1bdad95b88125160421b6044820152606401610476565b600081815260046020526040902080546001600160a01b0319166001600160a01b03841690811790915581906108778261059d565b6001600160a01b03167f8c5be1e5ebec7d5bd14f71427d1e84f3dd0314c0f7b2291e5b200ac8c7c3b92560405160405180910390a45050565b6000806108bc8361059d565b9050806001600160a01b0316846001600160a01b0316148061090357506001600160a01b0380821660009081526005602090815260408083209388168352929052205460ff165b806109275750836001600160a01b031661091c846103db565b6001600160a01b0316145b949350505050565b826001600160a01b03166109428261059d565b6001600160a01b0316146109685760405162461bcd60e51b8152600401610476906116cb565b6001600160a01b0382166109ca5760405162461bcd60e51b8152602060048201526024808201527f4552433732313a207472616e7366657220746f20746865207a65726f206164646044820152637265737360e01b6064820152608401610476565b6109d78383836001610ed0565b826001600160a01b03166109ea8261059d565b6001600160a01b031614610a105760405162461bcd60e51b8152600401610476906116cb565b600081815260046020908152604080832080546001600160a01b03199081169091556001600160a01b0387811680865260038552838620805460001901905590871680865283862080546001019055868652600290945282852080549092168417909155905184937fddf252ad1be2c89b69c2b068fc378daa952ba7f163c4a11628f55a4df523b3ef91a4505050565b6006546001600160a01b036101009091041633146105705760405162461bcd60e51b815260206004820181905260248201527f4f776e61626c653a2063616c6c6572206973206e6f7420746865206f776e65726044820152606401610476565b80471015610b505760405162461bcd60e51b815260206004820152601d60248201527f416464726573733a20696e73756666696369656e742062616c616e63650000006044820152606401610476565b6000826001600160a01b03168260405160006040518083038185875af1925050503d8060008114610b9d576040519150601f19603f3d011682016040523d82523d6000602084013e610ba2565b606091505b50509050806105175760405162461bcd60e51b815260206004820152603a60248201527f416464726573733a20756e61626c6520746f2073656e642076616c75652c207260448201527f6563697069656e74206d617920686176652072657665727465640000000000006064820152608401610476565b610c21610f34565b6006805460ff191690557f5db9ee0a495bf2e6ff9c91a7834c1ba4fdd244a5e8aa4e537bd38aeae4b073aa335b6040516001600160a01b03909116815260200160405180910390a1565b610c73610f7d565b6006805460ff191660011790557f62e78cea01bee320cd4e420270b5ea74000d11b0c9f74754ebdbfc544b05a258610c4e3390565b6106bc828260405180602001604052806000815250610fc3565b816001600160a01b0316836001600160a01b031603610d235760405162461bcd60e51b815260206004820152601960248201527f4552433732313a20617070726f766520746f2063616c6c6572000000000000006044820152606401610476565b6001600160a01b03838116600081815260056020908152604080832094871680845294825291829020805460ff191686151590811790915591519182527f17307eab39ab6107e8899845ad3d59bd9653f200f220920489ca2b5937696c31910160405180910390a3505050565b610d9b84848461092f565b610da784848484610ff6565b6106fd5760405162461bcd60e51b815260040161047690611710565b60606040518060600160405280603081526020016117bd60309139905090565b60606000610df0836110f7565b600101905060008167ffffffffffffffff811115610e1057610e106114f0565b6040519080825280601f01601f191660200182016040528015610e3a576020820181803683370190505b5090508181016020015b600019016f181899199a1a9b1b9c1cb0b131b232b360811b600a86061a8153600a8504945084610e4457509392505050565b600680546001600160a01b03838116610100818102610100600160a81b031985161790945560405193909204169182907f8be0079c531659141344cd1fd0a4f28419497f9722a3daafe3b4186f6b6457e090600090a35050565b610ed8610f7d565b6001600160a01b03841615610f2f5760405162461bcd60e51b815260206004820152601860248201527f4572723a20746f6b656e20697320534f554c20424f554e4400000000000000006044820152606401610476565b6106fd565b60065460ff166105705760405162461bcd60e51b815260206004820152601460248201527314185d5cd8589b194e881b9bdd081c185d5cd95960621b6044820152606401610476565b60065460ff16156105705760405162461bcd60e51b815260206004820152601060248201526f14185d5cd8589b194e881c185d5cd95960821b6044820152606401610476565b610fcd83836111cf565b610fda6000848484610ff6565b6105175760405162461bcd60e51b815260040161047690611710565b60006001600160a01b0384163b156110ec57604051630a85bd0160e11b81526001600160a01b0385169063150b7a029061103a903390899088908890600401611762565b6020604051808303816000875af1925050508015611075575060408051601f3d908101601f191682019092526110729181019061179f565b60015b6110d2573d8080156110a3576040519150601f19603f3d011682016040523d82523d6000602084013e6110a8565b606091505b5080516000036110ca5760405162461bcd60e51b815260040161047690611710565b805181602001fd5b6001600160e01b031916630a85bd0160e11b149050610927565b506001949350505050565b60008072184f03e93ff9f4daa797ed6e38ed64bf6a1f0160401b83106111365772184f03e93ff9f4daa797ed6e38ed64bf6a1f0160401b830492506040015b6d04ee2d6d415b85acef81000000008310611162576d04ee2d6d415b85acef8100000000830492506020015b662386f26fc10000831061118057662386f26fc10000830492506010015b6305f5e1008310611198576305f5e100830492506008015b61271083106111ac57612710830492506004015b606483106111be576064830492506002015b600a83106103435760010192915050565b6001600160a01b0382166112255760405162461bcd60e51b815260206004820181905260248201527f4552433732313a206d696e7420746f20746865207a65726f20616464726573736044820152606401610476565b6000818152600260205260409020546001600160a01b03161561128a5760405162461bcd60e51b815260206004820152601c60248201527f4552433732313a20746f6b656e20616c7265616479206d696e746564000000006044820152606401610476565b611298600083836001610ed0565b6000818152600260205260409020546001600160a01b0316156112fd5760405162461bcd60e51b815260206004820152601c60248201527f4552433732313a20746f6b656e20616c7265616479206d696e746564000000006044820152606401610476565b6001600160a01b038216600081815260036020908152604080832080546001019055848352600290915280822080546001600160a01b0319168417905551839291907fddf252ad1be2c89b69c2b068fc378daa952ba7f163c4a11628f55a4df523b3ef908290a45050565b6001600160e01b0319811681146107e057600080fd5b60006020828403121561139057600080fd5b813561076381611368565b60005b838110156113b657818101518382015260200161139e565b50506000910152565b600081518084526113d781602086016020860161139b565b601f01601f19169290920160200192915050565b60208152600061076360208301846113bf565b60006020828403121561141057600080fd5b5035919050565b80356001600160a01b038116811461142e57600080fd5b919050565b6000806040838503121561144657600080fd5b61144f83611417565b946020939093013593505050565b60008060006060848603121561147257600080fd5b61147b84611417565b925061148960208501611417565b9150604084013590509250925092565b6000602082840312156114ab57600080fd5b61076382611417565b600080604083850312156114c757600080fd5b6114d083611417565b9150602083013580151581146114e557600080fd5b809150509250929050565b634e487b7160e01b600052604160045260246000fd5b6000806000806080858703121561151c57600080fd5b61152585611417565b935061153360208601611417565b925060408501359150606085013567ffffffffffffffff8082111561155757600080fd5b818701915087601f83011261156b57600080fd5b81358181111561157d5761157d6114f0565b604051601f8201601f19908116603f011681019083821181831017156115a5576115a56114f0565b816040528281528a60208487010111156115be57600080fd5b82602086016020830137600060208483010152809550505050505092959194509250565b600080604083850312156115f557600080fd5b6115fe83611417565b915061160c60208401611417565b90509250929050565b600181811c9082168061162957607f821691505b60208210810361164957634e487b7160e01b600052602260045260246000fd5b50919050565b6020808252602d908201527f4552433732313a2063616c6c6572206973206e6f7420746f6b656e206f776e6560408201526c1c881bdc88185c1c1c9bdd9959609a1b606082015260800190565b600083516116ae81846020880161139b565b8351908301906116c281836020880161139b565b01949350505050565b60208082526025908201527f4552433732313a207472616e736665722066726f6d20696e636f72726563742060408201526437bbb732b960d91b606082015260800190565b60208082526032908201527f4552433732313a207472616e7366657220746f206e6f6e20455243373231526560408201527131b2b4bb32b91034b6b83632b6b2b73a32b960711b606082015260800190565b6001600160a01b0385811682528416602082015260408101839052608060608201819052600090611795908301846113bf565b9695505050505050565b6000602082840312156117b157600080fd5b81516107638161136856fe68747470733a2f2f636f2d667269656e642d6465762e7363692d636f2e636f2e6a702f7362742f6d657461646174612fa26469706673582212202e718d42958770d275b1349566b22b051833a12097b2ae6e13f89c9995c9c9a064736f6c63430008120033",
  "linkReferences": {},
  "deployedLinkReferences": {}
}